{
  "_format": "hh-sol-artifact-1",
  "contractName": "CrowdFunding",
  "sourceName": "contracts/CrowdFunding.sol",
  "abi": [
    {
      "inputs": [
        {
          "internalType": "uint256",
          "name": "",
          "type": "uint256"
        }
      ],
      "name": "campaigns",
      "outputs": [
        {
          "internalType": "address",
          "name": "owner",
          "type": "address"
        },
        {
          "internalType": "string",
          "name": "title",
          "type": "string"
        },
        {
          "internalType": "string",
          "name": "description",
          "type": "string"
        },
        {
          "internalType": "uint256",
          "name": "target",
          "type": "uint256"
        },
        {
          "internalType": "uint256",
          "name": "deadline",
          "type": "uint256"
        },
        {
          "internalType": "uint256",
          "name": "amounntCollected",
          "type": "uint256"
        }
      ],
      "stateMutability": "view",
      "type": "function"
    },
    {
      "inputs": [
        {
          "internalType": "address",
          "name": "_owner",
          "type": "address"
        },
        {
          "internalType": "string",
          "name": "_title",
          "type": "string"
        },
        {
          "internalType": "string",
          "name": "_description",
          "type": "string"
        },
        {
          "internalType": "uint256",
          "name": "_target",
          "type": "uint256"
        },
        {
          "internalType": "uint256",
          "name": "_deadline",
          "type": "uint256"
        }
      ],
      "name": "createCampaingn",
      "outputs": [
        {
          "internalType": "uint256",
          "name": "",
          "type": "uint256"
        }
      ],
      "stateMutability": "nonpayable",
      "type": "function"
    },
    {
      "inputs": [
        {
          "internalType": "uint256",
          "name": "_id",
          "type": "uint256"
        }
      ],
      "name": "donateToCampaign",
      "outputs": [],
      "stateMutability": "payable",
      "type": "function"
    },
    {
      "inputs": [],
      "name": "getCampaigns",
      "outputs": [
        {
          "components": [
            {
              "internalType": "address",
              "name": "owner",
              "type": "address"
            },
            {
              "internalType": "string",
              "name": "title",
              "type": "string"
            },
            {
              "internalType": "string",
              "name": "description",
              "type": "string"
            },
            {
              "internalType": "uint256",
              "name": "target",
              "type": "uint256"
            },
            {
              "internalType": "uint256",
              "name": "deadline",
              "type": "uint256"
            },
            {
              "internalType": "uint256",
              "name": "amounntCollected",
              "type": "uint256"
            },
            {
              "internalType": "address[]",
              "name": "donators",
              "type": "address[]"
            },
            {
              "internalType": "uint256[]",
              "name": "donations",
              "type": "uint256[]"
            }
          ],
          "internalType": "struct CrowdFunding.Campaign[]",
          "name": "",
          "type": "tuple[]"
        }
      ],
      "stateMutability": "view",
      "type": "function"
    },
    {
      "inputs": [
        {
          "internalType": "uint256",
          "name": "_id",
          "type": "uint256"
        }
      ],
      "name": "getDonators",
      "outputs": [
        {
          "internalType": "address[]",
          "name": "",
          "type": "address[]"
        },
        {
          "internalType": "uint256[]",
          "name": "",
          "type": "uint256[]"
        }
      ],
      "stateMutability": "view",
      "type": "function"
    },
    {
      "inputs": [],
      "name": "numberOfCampaigns",
      "outputs": [
        {
          "internalType": "uint256",
          "name": "",
          "type": "uint256"
        }
      ],
      "stateMutability": "view",
      "type": "function"
    }
  ],
  "bytecode": "0x6080604052600060015534801561001557600080fd5b5061176b806100256000396000f3fe6080604052600436106100555760003560e01c806307ca140d1461005a5780630fa91fa914610085578063141961bc146100c357806342a4fda814610105578063a6b0363314610121578063f5778c3c1461014c575b600080fd5b34801561006657600080fd5b5061006f610189565b60405161007c9190610a37565b60405180910390f35b34801561009157600080fd5b506100ac60048036038101906100a79190610a92565b61018f565b6040516100ba929190610c6d565b60405180910390f35b3480156100cf57600080fd5b506100ea60048036038101906100e59190610a92565b61029f565b6040516100fc96959493929190610d43565b60405180910390f35b61011f600480360381019061011a9190610a92565b61040b565b005b34801561012d57600080fd5b5061013661056b565b6040516101439190611061565b60405180910390f35b34801561015857600080fd5b50610173600480360381019061016e91906111e4565b6108af565b6040516101809190610a37565b60405180910390f35b60015481565b6060806000808481526020019081526020016000206006016000808581526020019081526020016000206007018180548060200260200160405190810160405280929190818152602001828054801561023d57602002820191906000526020600020905b8160009054906101000a900473ffffffffffffffffffffffffffffffffffffffff1673ffffffffffffffffffffffffffffffffffffffff16815260200190600101908083116101f3575b505050505091508080548060200260200160405190810160405280929190818152602001828054801561028f57602002820191906000526020600020905b81548152602001906001019080831161027b575b5050505050905091509150915091565b60006020528060005260406000206000915090508060000160009054906101000a900473ffffffffffffffffffffffffffffffffffffffff16908060010180546102e8906112c6565b80601f0160208091040260200160405190810160405280929190818152602001828054610314906112c6565b80156103615780601f1061033657610100808354040283529160200191610361565b820191906000526020600020905b81548152906001019060200180831161034457829003601f168201915b505050505090806002018054610376906112c6565b80601f01602080910402602001604051908101604052809291908181526020018280546103a2906112c6565b80156103ef5780601f106103c4576101008083540402835291602001916103ef565b820191906000526020600020905b8154815290600101906020018083116103d257829003601f168201915b5050505050908060030154908060040154908060050154905086565b60003490506000806000848152602001908152602001600020905080600601339080600181540180825580915050600190039060005260206000200160009091909190916101000a81548173ffffffffffffffffffffffffffffffffffffffff021916908373ffffffffffffffffffffffffffffffffffffffff1602179055508060070182908060018154018082558091505060019003906000526020600020016000909190919091505560008160000160009054906101000a900473ffffffffffffffffffffffffffffffffffffffff1673ffffffffffffffffffffffffffffffffffffffff168360405161050090611328565b60006040518083038185875af1925050503d806000811461053d576040519150601f19603f3d011682016040523d82523d6000602084013e610542565b606091505b5050905080156105655782826005015461055c919061136c565b82600501819055505b50505050565b6060600060015467ffffffffffffffff81111561058b5761058a6110b9565b5b6040519080825280602002602001820160405280156105c457816020015b6105b16109c3565b8152602001906001900390816105a95790505b50905060005b6001548110156108a7576000806000838152602001908152602001600020905080604051806101000160405290816000820160009054906101000a900473ffffffffffffffffffffffffffffffffffffffff1673ffffffffffffffffffffffffffffffffffffffff1673ffffffffffffffffffffffffffffffffffffffff16815260200160018201805461065d906112c6565b80601f0160208091040260200160405190810160405280929190818152602001828054610689906112c6565b80156106d65780601f106106ab576101008083540402835291602001916106d6565b820191906000526020600020905b8154815290600101906020018083116106b957829003601f168201915b505050505081526020016002820180546106ef906112c6565b80601f016020809104026020016040519081016040528092919081815260200182805461071b906112c6565b80156107685780601f1061073d57610100808354040283529160200191610768565b820191906000526020600020905b81548152906001019060200180831161074b57829003601f168201915b505050505081526020016003820154815260200160048201548152602001600582015481526020016006820180548060200260200160405190810160405280929190818152602001828054801561081457602002820191906000526020600020905b8160009054906101000a900473ffffffffffffffffffffffffffffffffffffffff1673ffffffffffffffffffffffffffffffffffffffff16815260200190600101908083116107ca575b505050505081526020016007820180548060200260200160405190810160405280929190818152602001828054801561086c57602002820191906000526020600020905b815481526020019060010190808311610858575b505050505081525050838381518110610888576108876113a0565b5b602002602001018190525050808061089f906113cf565b9150506105ca565b508091505090565b600080600080600154815260200190815260200160002090504281600401541061090e576040517f08c379a000000000000000000000000000000000000000000000000000000000815260040161090590611463565b60405180910390fd5b868160000160006101000a81548173ffffffffffffffffffffffffffffffffffffffff021916908373ffffffffffffffffffffffffffffffffffffffff16021790555085816001019081610962919061162f565b5084816002019081610974919061162f565b5083816003018190555082816004018190555060008160050181905550600160008154809291906109a4906113cf565b9190505550600180546109b79190611701565b91505095945050505050565b604051806101000160405280600073ffffffffffffffffffffffffffffffffffffffff168152602001606081526020016060815260200160008152602001600081526020016000815260200160608152602001606081525090565b6000819050919050565b610a3181610a1e565b82525050565b6000602082019050610a4c6000830184610a28565b92915050565b6000604051905090565b600080fd5b600080fd5b610a6f81610a1e565b8114610a7a57600080fd5b50565b600081359050610a8c81610a66565b92915050565b600060208284031215610aa857610aa7610a5c565b5b6000610ab684828501610a7d565b91505092915050565b600081519050919050565b600082825260208201905092915050565b6000819050602082019050919050565b600073ffffffffffffffffffffffffffffffffffffffff82169050919050565b6000610b1682610aeb565b9050919050565b610b2681610b0b565b82525050565b6000610b388383610b1d565b60208301905092915050565b6000602082019050919050565b6000610b5c82610abf565b610b668185610aca565b9350610b7183610adb565b8060005b83811015610ba2578151610b898882610b2c565b9750610b9483610b44565b925050600181019050610b75565b5085935050505092915050565b600081519050919050565b600082825260208201905092915050565b6000819050602082019050919050565b610be481610a1e565b82525050565b6000610bf68383610bdb565b60208301905092915050565b6000602082019050919050565b6000610c1a82610baf565b610c248185610bba565b9350610c2f83610bcb565b8060005b83811015610c60578151610c478882610bea565b9750610c5283610c02565b925050600181019050610c33565b5085935050505092915050565b60006040820190508181036000830152610c878185610b51565b90508181036020830152610c9b8184610c0f565b90509392505050565b610cad81610b0b565b82525050565b600081519050919050565b600082825260208201905092915050565b60005b83811015610ced578082015181840152602081019050610cd2565b60008484015250505050565b6000601f19601f8301169050919050565b6000610d1582610cb3565b610d1f8185610cbe565b9350610d2f818560208601610ccf565b610d3881610cf9565b840191505092915050565b600060c082019050610d586000830189610ca4565b8181036020830152610d6a8188610d0a565b90508181036040830152610d7e8187610d0a565b9050610d8d6060830186610a28565b610d9a6080830185610a28565b610da760a0830184610a28565b979650505050505050565b600081519050919050565b600082825260208201905092915050565b6000819050602082019050919050565b600082825260208201905092915050565b6000610dfa82610cb3565b610e048185610dde565b9350610e14818560208601610ccf565b610e1d81610cf9565b840191505092915050565b600082825260208201905092915050565b6000610e4482610abf565b610e4e8185610e28565b9350610e5983610adb565b8060005b83811015610e8a578151610e718882610b2c565b9750610e7c83610b44565b925050600181019050610e5d565b5085935050505092915050565b600082825260208201905092915050565b6000610eb382610baf565b610ebd8185610e97565b9350610ec883610bcb565b8060005b83811015610ef9578151610ee08882610bea565b9750610eeb83610c02565b925050600181019050610ecc565b5085935050505092915050565b600061010083016000830151610f1f6000860182610b1d565b5060208301518482036020860152610f378282610def565b91505060408301518482036040860152610f518282610def565b9150506060830151610f666060860182610bdb565b506080830151610f796080860182610bdb565b5060a0830151610f8c60a0860182610bdb565b5060c083015184820360c0860152610fa48282610e39565b91505060e083015184820360e0860152610fbe8282610ea8565b9150508091505092915050565b6000610fd78383610f06565b905092915050565b6000602082019050919050565b6000610ff782610db2565b6110018185610dbd565b93508360208202850161101385610dce565b8060005b8581101561104f57848403895281516110308582610fcb565b945061103b83610fdf565b925060208a01995050600181019050611017565b50829750879550505050505092915050565b6000602082019050818103600083015261107b8184610fec565b905092915050565b61108c81610b0b565b811461109757600080fd5b50565b6000813590506110a981611083565b92915050565b600080fd5b600080fd5b7f4e487b7100000000000000000000000000000000000000000000000000000000600052604160045260246000fd5b6110f182610cf9565b810181811067ffffffffffffffff821117156111105761110f6110b9565b5b80604052505050565b6000611123610a52565b905061112f82826110e8565b919050565b600067ffffffffffffffff82111561114f5761114e6110b9565b5b61115882610cf9565b9050602081019050919050565b82818337600083830152505050565b600061118761118284611134565b611119565b9050828152602081018484840111156111a3576111a26110b4565b5b6111ae848285611165565b509392505050565b600082601f8301126111cb576111ca6110af565b5b81356111db848260208601611174565b91505092915050565b600080600080600060a08688031215611200576111ff610a5c565b5b600061120e8882890161109a565b955050602086013567ffffffffffffffff81111561122f5761122e610a61565b5b61123b888289016111b6565b945050604086013567ffffffffffffffff81111561125c5761125b610a61565b5b611268888289016111b6565b935050606061127988828901610a7d565b925050608061128a88828901610a7d565b9150509295509295909350565b7f4e487b7100000000000000000000000000000000000000000000000000000000600052602260045260246000fd5b600060028204905060018216806112de57607f821691505b6020821081036112f1576112f0611297565b5b50919050565b600081905092915050565b50565b60006113126000836112f7565b915061131d82611302565b600082019050919050565b600061133382611305565b9150819050919050565b7f4e487b7100000000000000000000000000000000000000000000000000000000600052601160045260246000fd5b600061137782610a1e565b915061138283610a1e565b925082820190508082111561139a5761139961133d565b5b92915050565b7f4e487b7100000000000000000000000000000000000000000000000000000000600052603260045260246000fd5b60006113da82610a1e565b91507fffffffffffffffffffffffffffffffffffffffffffffffffffffffffffffffff820361140c5761140b61133d565b5b600182019050919050565b7f74686520646561646c696e652073686f756c64206265206f6620667574757265600082015250565b600061144d602083610cbe565b915061145882611417565b602082019050919050565b6000602082019050818103600083015261147c81611440565b9050919050565b60008190508160005260206000209050919050565b60006020601f8301049050919050565b600082821b905092915050565b6000600883026114e57fffffffffffffffffffffffffffffffffffffffffffffffffffffffffffffffff826114a8565b6114ef86836114a8565b95508019841693508086168417925050509392505050565b6000819050919050565b600061152c61152761152284610a1e565b611507565b610a1e565b9050919050565b6000819050919050565b61154683611511565b61155a61155282611533565b8484546114b5565b825550505050565b600090565b61156f611562565b61157a81848461153d565b505050565b5b8181101561159e57611593600082611567565b600181019050611580565b5050565b601f8211156115e3576115b481611483565b6115bd84611498565b810160208510156115cc578190505b6115e06115d885611498565b83018261157f565b50505b505050565b600082821c905092915050565b6000611606600019846008026115e8565b1980831691505092915050565b600061161f83836115f5565b9150826002028217905092915050565b61163882610cb3565b67ffffffffffffffff811115611651576116506110b9565b5b61165b82546112c6565b6116668282856115a2565b600060209050601f8311600181146116995760008415611687578287015190505b6116918582611613565b8655506116f9565b601f1984166116a786611483565b60005b828110156116cf578489015182556001820191506020850194506020810190506116aa565b868310156116ec57848901516116e8601f8916826115f5565b8355505b6001600288020188555050505b505050505050565b600061170c82610a1e565b915061171783610a1e565b925082820390508181111561172f5761172e61133d565b5b9291505056fea2646970667358221220303881154d495487a04b6d5c811a9d32d23cca01c5cab3226a10524fa38bb9d264736f6c63430008120033",
  "linkReferences": {},
  "deployedLinkReferences": {}
}